:10000000001000202908000071080000710800009D
:1000100071080000710800007108000071080000FC
:1000200071080000710800007108000071080000EC
:1000300071080000710800001777000071080000C7
:1000400071080000710800007108000071080000CC
:1000500071080000710800007108000071080000BC
:1000600071080000710800007108000071080000AC
:10007000710800007108000071080000710800009C
:10008000710800007108000071080000710800008C
:10009000710800007108000071080000710800007C
:1000A000710800007108000071080000710800006C
:1000B0007108000071080000C19B00007108000079
:1000C000710800007108000071080000710800004C
:1000D000710800007108000071080000710800003C
:1000E000710800007108000071080000710800002C
:1000F000710800007108000071080000710800001C
:1001000071080000710800007108000010B5054C6E
:10011000237833B9044B13B10448AFF300800123B3
:10012000237010BD3811002000000000BCD4000076
:1001300008B5034B1BB103490348AFF3008008BD6A
:10014000000000003C110020BCD40000A3F5803A60
:10015000704700BF174B002B08BF134B9D46FFF79E
:10016000F5FF00218B460F461348144A121A0BF074
:1001700091F90E4B002B00D098470D4B002B00D06F
:1001800098470020002104000D000D48002802D0EF
:100190000C48AFF300800BF04BF9200029000AF067
:1001A00021FC0BF031F900BF000008000000000046
:1001B0000000000000100020381100201C6000200A
:1001C000000000000000000008B5012304220F21F8
:1001D000032003F0F7F80023184608BD30B58DB0B2
:1001E000039002911346ADF80630224B05AC1D4634
:1001F0000FCD0FC495E8030084E80300039B1B6840
:100200000B9301211C4800F091FF039B5B680121C7
:10021000184600F08BFF039B187B039B5B7B194602
:100220000023042203F0CEF8039B187A039B5B7A29
:1002300019460023042203F0C5F8029B0793BDF87A
:100240000630ADF8243005AB19460B9803F08EFA52
:10025000039B9B7B1A02039B1B7C1B0613431A46C2
:100260000B9B9A670B9B0A225A67002318460DB016
:1002700030BD00BF9CBD000000350A0000B589B04C
:10028000039002910192029B0693039B1B680593C6
:10029000002307930AE0069A079B13441B7819462C
:1002A000059803F055FB079B01330793079A019BC1
:1002B0009A42F0D30023184609B05DF804FB84B0DD
:1002C0000190019B1B68039300BF039B1B6903F014
:1002D0002003002BF9D000BF00BF04B0704784B0EA
:1002E00001900091019B03F1C0630393039B009A6B
:1002F0001A6000BF04B0704784B001900091019B68
:1003000003F180630393039B009A1A6000BF04B05B
:100310007047000000B583B0034600918DF80730A8
:100320009DF80730002B42D09DF80730012B3BD0C1
:100330009DF80730022B34D09DF80730032B2DD0C9
:100340009DF80730042B27D09DF80730052B20D0CF
:100350009DF80730062B1AD09DF80730072B14D0D4
:100360009DF80730082B0ED09DF80730092B07D0D9
:100370009DF807300A2B01D107231AE0002318E06B
:100380004FF4404315E00F2313E0002311E0002356
:100390000FE04FF6FF730CE000230AE04FF47F43B9
:1003A00007E040F6FF7304E04FF6C07301E040F24F
:1003B000FF33009AD34003F00103002B04D14FF424
:1003C00079710D4800F0F0FB9DF8072013465B00A3
:1003D00013441B010C3303F1804303F52043012137
:1003E000009A01FA02F211461846FFF785FF00BF96
:1003F00003B05DF804FB00BFB4BD000000B583B0DE
:10040000034600918DF807309DF80730002B42D04D
:100410009DF80730012B3BD09DF80730022B34D0DC
:100420009DF80730032B2DD09DF80730042B27D0E3
:100430009DF80730052B20D09DF80730062B1AD0E9
:100440009DF80730072B14D09DF80730082B0ED0ED
:100450009DF80730092B07D09DF807300A2B01D1F2
:1004600007231AE0002318E04FF4404315E00F2360
:1004700013E0002311E000230FE04FF6FF730CE0C0
:1004800000230AE04FF47F4307E040F6FF7304E0E7
:100490004FF6C07301E040F2FF33009AD34003F0FF
:1004A0000103002B04D140F213410D4800F07CFB06
:1004B0009DF8072013465B0013441B010C3303F126
:1004C000804303F520430121009A01FA02F211460C
:1004D0001846FFF704FF00BF03B05DF804FB00BF40
:1004E000B4BD000000B583B0034600918DF807301D
:1004F0009DF80730002B42D09DF80730012B3BD0F0
:100500009DF80730022B34D09DF80730032B2DD0F7
:100510009DF80730042B27D09DF80730052B20D0FD
:100520009DF80730062B1AD09DF80730072B14D002
:100530009DF80730082B0ED09DF80730092B07D007
:100540009DF807300A2B01D107231AE0002318E099
:100550004FF4404315E00F2313E0002311E0002384
:100560000FE04FF6FF730CE000230AE04FF47F43E7
:1005700007E040F6FF7304E04FF6C07301E040F27D
:10058000FF33009AD34003F00103002B04D140F263
:100590002E410A4800F008FB09489DF80720012178
:1005A000009B994013465B0013441B01034418331E
:1005B000196000BF03B05DF804FB00BFB4BD0000CC
:1005C00000A0004010B582B001900121144800F055
:1005D000ADFD019B9B68002219461248FFF7FEFD06
:1005E000002304220E21032002F0ECFE002304224B
:1005F0000D21032002F0E6FE0B4A019B14460FCBAF
:1006000084E80F00094B01221A700121019800F0C3
:100610000FF8019800F03AF80023184602B010BD18
:1006200000350A00001000206C1100207C11002011
:1006300000B587B003900B468DF80B30002305936F
:100640009DF80B30002B14D008F08AFE0490039B19
:100650001B7B5B001A46049BB3FBF2F10123019361
:10066000002300930023074A074808F07AFD05900D
:1006700003E0054808F096FD0590059B184607B075
:100680005DF804FBED0700005411002000B585B0B3
:1006900001900E210320FFF7B1FE019B5B7B184602
:1006A00009F0DCFA0423ADF80E300DF10E0302223E
:1006B00019460A48FFF7E2FD0848FFF700FE019BD4
:1006C0009B7B184609F0CAFA0E210320FFF722FE91
:1006D0000023184605B05DF804FB00BF00100020A1
:1006E00000B589B00390029101920093029B06939A
:1006F000039B1B881A46039B1B7902FB03F3002B09
:1007000000DA0733DB100593019B013301930E21BF
:100710000320FFF773FE039B5B7B184609F09EFAEC
:10072000019B9BB21B029BB243F001039BB2ADF84D
:1007300012300DF11203022219462448FFF79EFDE4
:10074000002307932CE0059B1A4606991F48FFF7E4
:1007500095FD059B069A13440693009B013B079A5F
:100760009A4204D14FF6FF73ADF812300EE0019BB0
:100770009AB2079B9BB213449BB201339BB21B02FC
:100780009BB243F0FF039BB2ADF812300DF11203A0
:10079000022219460D48FFF771FD079B01330793AD
:1007A000079A009B9A42CED30848FFF788FD039B27
:1007B0009B7B184609F052FA0E210320FFF7AAFD91
:1007C0000023184609B05DF804FB00BF00100020AC
:1007D000044B1B78002B01D0034B00E0002318468C
:1007E000704700BF7C1100206C11002000B583B061
:1007F000019000910D210320FFF774FE00BF03B0AC
:100800005DF804FB10B584B0064B6C460FCB84E852
:100810000F006B461846FFF7D5FE0346184604B096
:1008200010BD00BF2CBE000000B585B000F08AF8F6
:100830000C4B03930C4B02930B4B01930B4B00930C
:100840000AE0039A131D0393029B191D029112687B
:100850001A60019B04330193019A009B9A42F0D3E2
:10086000FFF778FCC4D400000010002038110020ED
:10087000FEE7000000B583B000F020F801900A4BBD
:10088000D3F808311B0AC3F308030093009B01331C
:10089000019AB2FBF3F30193044A019B1360019B9D
:1008A000184603B05DF804FB00400E401C10002009
:1008B000014B1846704700BF005A620282B01A4BC3
:1008C000D3F8943003F00703023B032B1BD801A29B
:1008D00052F823F0F5080000ED080000E5080000DC
:1008E000FD080000114B1B68019310E04FF400431A
:1008F00001930CE00E4B1B68019308E00D4B1B6845
:100900005B08019303E00B4B1B68019300BF064B90
:10091000D3F800311B0A03F01F030133019AB2FB25
:10092000F3F3184602B0704700400E401810002044
:100930001410002020100020014B1B68184670473F
:1009400014100020064B074A9A60054BD3F88830F4
:10095000034A43F47003C2F8883000BF704700BFF9
:1009600000ED00E0000000004FF40043184670471F
:100970004FF47A7318467047014B1B68184670474E
:100980001810002084B001900B4B1A68019B13448F
:100990000A4A934202D94FF0FF3309E0064B1B6825
:1009A0000393054B1A68019B1344034A1360039B8E
:1009B000184604B0704700BF241000200000042037
:1009C00000B587B0039002910192029B1F2B03D9BF
:1009D00091210A4800F0E8F8039B03F1424303F534
:1009E0008013DA00029B13449B000593059B019A38
:1009F0001A6000BF07B05DF804FB00BF3CBE0000FA
:100A000000B587B003900291019201F0CBFB0590F5
:100A1000039B1A68029BDB431A400199029B0B401F
:100A20001A43039B1A60059801F0C8FB00BF07B08A
:100A30005DF804FB00B583B001900091019BB3F118
:100A4000804F07D0019B274A934203D0A22126481A
:100A500000F0AAF8009B1B693F2B03D9B62122485E
:100A600000F0A2F8009BDB683F2B03D9B7211E489A
:100A700000F09AF8009B5B683F2B03D9B8211A4815
:100A800000F092F8009B1B78DB071A46009B5B681E
:100A90001B06134343F40042019B1A60009BDB6872
:100AA0001B04009A127A1A43019B9A62009B1B69ED
:100AB0001B04009A527A1A43019BDA62009B9B7ACC
:100AC0001B0743F0806343F47D43019A5360019810
:100AD000009B1B7D1A460021FFF772FF00BF03B089
:100AE0005DF804FB00040040B4BE000000B583B014
:100AF00001900B468DF80330019BB3F1804F07D076
:100B0000019B094A934203D0F521084800F04CF8B4
:100B1000019B04339DF80320FF211846FFF770FF67
:100B200000BF03B05DF804FB00040040B4BE000049
:100B300000B583B00190019BB3F1804F08D0019BB9
:100B4000084A934204D040F21B11074800F02CF8E9
:100B5000019B1B6823F00102019B1A6000BF03B0D8
:100B60005DF804FB00040040B4BE000000B583B093
:100B70000190019BB3F1804F08D0019B084A93423A
:100B800004D04FF49C71074800F00EF8019B1B68DD
:100B900043F00102019B1A6000BF03B05DF804FB43
:100BA00000040040B4BE000082B001900091FEE756
:100BB00000B583B00190019B1F2B04D940F22F1187
:100BC0000548FFF7F1FF0122019B02FA03F31846E3
:100BD00003B05DF804FB00BFE4BE000000B587B0C1
:100BE000039002910192029B1F2B03D991210A4885
:100BF000FFF7DAFF039B03F1424303F58013DA00AA
:100C0000029B13449B000593059B019A1A6000BF49
:100C100007B05DF804FB00BF60BF000084B0019026
:100C20000091019B03F1424303F58013DA00009B1E
:100C300013449B000393039B1B68184604B0704742
:100C4000054B1B6803F04003002B01D1012300E09A
:100C500000231846704700BF3C300E4008B5FFF730
:100C6000EFFF034683F00103DBB2002B08D100BF86
:100C700012210448FFF7D2FF0346002BF8D100E011
:100C800000BF08BD04300E4008B5FFF7E7FF044B76
:100C90005B681B0C03F00303DBB2184608BD00BF02
:100CA00000300E4000B585B0019001230393019BF5
:100CB000124A934204D8002303930023029308E0CE
:100CC000019B0F4A934202D80123029301E00223C1
:100CD0000293039A10210B48FFF780FF094BD3F8CA
:100CE000003123F08072029B1B0606491343C1F8B2
:100CF000003100BF05B05DF804FB00BF0048E8010B
:100D00000090D00300400E4082B0034B1B6801935B
:100D1000019B184602B070472810002000B583B030
:100D2000FFF7CCFD0190074BD3F800311B0A03F00D
:100D30001F030133019A02FB03F3184603B05DF869
:100D400004FB00BF00400E4000B583B0104800F027
:100D500081FC03468DF803309DF80330072B05D046
:100D6000092B07D1FFF7AAFD01900BE0FFF7CCFF9D
:100D7000019007E0002301934FF493510548FFF7DA
:100D800013FF00BF019B184603B05DF804FB00BFD2
:100D900006000E0050C0000000B585B00190019B18
:100DA000002B1FD1214800F055FC03468DF80B3075
:100DB00000BF9DF80B30013B072B29D801A252F848
:100DC00023F000BFF30D0000110E0000110E000013
:100DD000010E0000110E0000110E0000F90D0000C0
:100DE000090E00004FF494511148FFF7DDFE002377
:100DF00017E00023039313E0FFF786FF03900FE053
:100E0000FFF79AFD03900BE0FFF788FF039007E0E0
:100E10000023039341F297210548FFF7C5FE00BF69
:100E2000039B184605B05DF804FB00BFB800320014
:100E300050C0000000B585B0019000911F4B5B6869
:100E400003F0407303930023029312E01C4A029BB9
:100E5000DB0013441A79009BDBB29A4206D1184A90
:100E6000029B52F83330019A9A4206D9029B013311
:100E70000293029B042BE9D900E000BF029B052BE3
:100E800007D10323039341F29E310E48FFF78CFEF6
:100E900005E00B4A029BDB0013445B790393039B41
:100EA0001B060393054B5B6823F040720349039BC9
:100EB00013434B6000BF05B05DF804FB00000E401B
:100EC000C8C0000050C0000000B583B00E4B1B6CC2
:100ED000002B14BF012300238DF807300A4B41F685
:100EE00071321A64FFF7E4FC034600211846FFF74D
:100EF000A1FF9DF80730002B02D0034B00221A649B
:100F000000BF03B05DF804FB00000E4000B585B0E3
:100F1000019000910D4B1B6C002B14BF012300238B
:100F20008DF80F30094B41F671321A64009901981F
:100F3000FFF780FF9DF80F30002B02D0034B0022FB
:100F40001A6400BF05B05DF804FB00BF00000E404E
:100F500086B001900F230593019B03330493059BF7
:100F60000393039A049B934228BF13460293029B68
:100F70001B070293029B184606B07047034B5B6A3F
:100F80001B0903F003031846704700BF00400E40E2
:100F900082B00190054B5B6A23F03002019B1B017C
:100FA000024913434B6200BF02B0704700400E403D
:100FB00010B584B0019000230293019B424A9342F2
:100FC00011D0019B404A934207D8019B3F4A93426C
:100FD00009D0019B3E4A934205D041F29E413D48D3
:100FE000FFF7E2FD00E000BF019800F033FB03468D
:100FF0000393019B344A93421AD0019B324A934295
:101000001DD8019B314A934204D0019B304A934240
:1010100007D014E0304BD3F8803003F0070303937C
:1010200013E02D4BD3F8843003F0070303930CE057
:10103000294BD3F8883003F00703039305E041F20E
:10104000CD412448FFF7B0FD00BF039B042B2ED8F1
:1010500001A252F823F000BFA91000006D1000009B
:1010600075100000851000007D100000FFF77CFC6B
:10107000029024E0FFF780FC029020E0FFF778FC6C
:1010800002901CE0FFF71AFC0446134BD3F8003122
:101090001B0E03F0010301331846FFF789FD0346D9
:1010A000B4FBF3F302930AE00023029307E000236A
:1010B000029341F21F510748FFF776FD00BF029BE4
:1010C000184604B010BD00BF0500240002001E0039
:1010D0000300200050C0000000400E4082B001908C
:1010E000094BD3F8443103F00103002B08D100BFB2
:1010F000054BD3F84021019B1340002BF8D100E0B1
:1011000000BF02B0704700BF00400E4000BF7047F4
:1011100000BF704700B583B00190019800F0BAF9A4
:1011200003460133184603B05DF804FB00B587B0F1
:1011300001900B468DF8033000230493019B1B0A9A
:1011400003F00F03013B092B32D801A252F823F020
:101150007911000085110000B1110000B1110000EB
:101160007F1100008B11000095110000B1110000EB
:101170009F110000AB1100001B4B05931EE01B4BA1
:1011800005931BE01A4B059318E01A4B05930123B6
:10119000049313E0184B0593102304930EE0174BB0
:1011A00005934FF48033049308E0154B059305E055
:1011B00041F63B111348FFF7F7FC11E0019B1B0BB5
:1011C00003F01F030393049B002B02D00498FFF746
:1011D00085FF9DF803301A4603990598FFF7FEFC3A
:1011E00007B05DF804FB00BF00400E40B0400E4069
:1011F000C0400E40E0400E40E8400E40F0400E403F
:1012000050410E4050C0000010B584B00190019BC9
:1012100003F47813B3F5781F00F01B81B3F5781F42
:1012200000F22281B3F5481F00F00E81B3F5481F8C
:1012300000F21A81B3F5401F00F0E580B3F5401FBE
:1012400000F21281B3F5381F00F0B680B3F5381FF5
:1012500000F20A81B3F5101F00F0E980B3F5101F0A
:1012600000F20281B3F5001F00F0B580B3F5001F56
:1012700000F2FA80B3F5F01F79D0B3F5F01F00F259
:10128000F380B3F5D01F00F0AB80B3F5D01F00F2B0
:10129000EB80B3F5B01F7DD0B3F5B01F00F2E48052
:1012A000B3F5A01F68D0B3F5A01F00F2DD80B3F541
:1012B000801F00F0C580B3F5801F00F2D580B3F524
:1012C000602F00F0B980B3F5602F00F2CD80B3F548
:1012D000402F3DD0B3F5402F00F2C680B3F5202F4C
:1012E00023D0B3F5202F00F2BF80B3F5802F0DD0AF
:1012F000B3F5802F00F2B880002B03D0B3F5003F88
:1013000017D0B1E0FFF7DAFA0390B5E0FFF7D6FAAD
:1013100003905B4BD3F80C311B0AC3F30803013372
:10132000039AB2FBF3F30393A6E0FFF7C7FA039027
:10133000A2E0FFF7C3FA0390514BD3F808311B0A20
:10134000C3F308030133039AB2FBF3F3039393E06F
:10135000FFF7B4FA03904A4BD3F814311B0A03F099
:101360001F030133039AB2FBF3F3039384E0454870
:10137000FFF71EFE03907FE04348FFF719FE03903E
:101380003F4BD3F8303103F00303039A22FA03F3FF
:10139000039371E03B48FFF70BFE0390384BD3F803
:1013A000203103F00F031846FFF702FC0246039BAF
:1013B000B3FBF2F303935FE03248FFF7F9FD0390CC
:1013C0002F4BD3F820311B0903F00303039A22FAB1
:1013D00003F3039350E02D48FFF7EAFD03904BE041
:1013E0002A48FFF7E5FD0390254BD3F828311B0968
:1013F00003F003031846FFF7DBFB0246039BB3FB36
:10140000F2F3039338E02148FFF7D2FD03901C4B21
:10141000D3F828311B0A03F0030304331846FFF7FF
:10142000C7FB0246039BB3FBF2F3039324E0164889
:10143000FFF7BEFD03901FE0FFF786FC03901BE063
:10144000FFF762FC039017E00020FFF7A5FC039074
:1014500012E0FFF733FA04460198FFF75BFE0346FC
:10146000B4FBF3F3039307E00023039341F66B21EE
:101470000748FFF799FB00BF039B184604B010BD57
:1014800000400E4002001E00050024000300200062
:1014900050C0000000B585B00190019B1B0903F00E
:1014A0000F030293029B013B092B00F2B88001A2BB
:1014B00052F823F0DD140000ED140000FD140000CC
:1014C0001D1500001F1600001F1600002D1500003E
:1014D0003D15000097150000F7150000564BD3F896
:1014E00000311B0A03F01F030393A0E0524BD3F813
:1014F00014311B0A03F01F03039398E04E4BD3F8FB
:1015000000311B0E03F001030393039B01331846C4
:10151000FFF74EFB0346013B039388E0464BD3F8AD
:101520000C311B0AC3F30803039380E0424BD3F84A
:1015300008311B0AC3F30803039378E0019B3F4A79
:10154000934204D0019B3E4A93420DD01AE03A4B9D
:10155000D3F8203103F00F0303930398FFF728FB20
:101560000346013B039315E0334BD3F820311B09AD
:1015700003F0030303930398FFF71AFB0346013BB1
:10158000039307E00023039341F6DF212D48FFF783
:101590000BFB00BF4BE0019B2B4A934204D0019B05
:1015A0002A4A93420ED01DE0234BD3F828311B0961
:1015B00003F0030303930398FFF7FAFA0346013B92
:1015C000039317E01C4BD3F828311B0A03F00303E5
:1015D0000393039B04331846FFF7EAFA0346013BE3
:1015E000039307E00023039341F603311548FFF707
:1015F000DBFA00BF1BE0019B154A934206D10E4B5C
:10160000D3F8303103F00303039307E0002303937F
:1016100041F612310B48FFF7C7FA00BF07E000237D
:10162000039341F637310748FFF7BEFA00BF039B2B
:10163000184605B05DF804FB00400E408006160019
:1016400080162E0050C0000090171A00902730001E
:10165000A009140000B585B0019001238DF80F306A
:10166000019B03F00F030293029B013B072B00F247
:10167000E78001A252F823F099160000FB16000043
:1016800039170000411800008B170000C91700002F
:1016900041180000F3170000714BD3F8943003F0A9
:1016A0000703023B052B23D801A252F823F000BF09
:1016B000D9160000D1160000C9160000E11600007E
:1016C000F1160000E916000002238DF80F3013E038
:1016D00003238DF80F300FE004238DF80F300BE05B
:1016E0000B238DF80F3007E00C238DF80F3003E04B
:1016F00005238DF80F3000BFABE0594BD3F8803095
:1017000003F00703042B0ED0042B10D8012B02D0BA
:10171000022B04D00BE003238DF80F300BE00223E3
:101720008DF80F3007E00A238DF80F3003E0012316
:101730008DF80F3000BF8CE0494BD3F8843003F0B4
:101740000703013B032B1BD801A252F823F000BF73
:101750006117000069170000791700007117000079
:1017600003238DF80F300FE002238DF80F300BE0CC
:101770000A238DF80F3007E006238DF80F3003E0C1
:1017800001238DF80F3000BF63E0354BD3F888306C
:1017900003F00703042B0ED0042B10D8012B02D02A
:1017A000022B04D00BE003238DF80F300BE0022353
:1017B0008DF80F3007E00A238DF80F3003E0012386
:1017C0008DF80F3000BF44E0254B1B6F03F0010381
:1017D000002B05D0012B07D109238DF80F3007E02E
:1017E00007238DF80F3003E001238DF80F3000BF81
:1017F0002FE01B4BD3F85C3103F03003302B16D0B5
:10180000302B18D8202B0ED0202B14D8002B02D030
:10181000102B04D00FE001238DF80F300FE00723C9
:101820008DF80F300BE004238DF80F3007E008230C
:101830008DF80F3003E001238DF80F3000BF08E072
:1018400000238DF80F3041F68B610648FFF7ACF9A5
:1018500000BF9DF80F30184605B05DF804FB00BFCF
:1018600000400E4050C0000000B58BB001900B4608
:101870008DF803300323099303238DF823300023CD
:10188000069300230593019B112B1BD19DF8033078
:10189000042B03D1FFF750F805900CE09DF80330BE
:1018A000052B08D100F08CF90346BD4A934202D9BA
:1018B00000F086F90590059B002B03D000210598C8
:1018C00000F05AFD019B03F00F030493049B013BBE
:1018D000072B00F25B8101A252F823F0FD180000F3
:1018E000071A00003D1A00008D1B00001D1A0000A1
:1018F000E11A00008D1B00000D1B00009DF8033055
:10190000023B0A2B48D801A252F823F039190000F3
:1019100045190000511900006319000099190000D1
:101920009919000099190000991900008D190000FB
:1019300075190000811900000423099300238DF814
:1019400023302FE00323099301238DF8233029E06E
:101950000223099302238DF823309248FFF7A2F95E
:1019600020E00123099303238DF823308D48FFF7EE
:1019700099F917E00523099303238DF8233011E02B
:101980000723099306238DF823300BE041F64C71B1
:101990008548FFF709F9FFE041F651718248FFF7EA
:1019A00003F9F9E09DF82330062B06D09DF823308B
:1019B00001220121184600F089F9FFF785FAFFF7A7
:1019C000A5FB059B002B01D0FFF748F9774A099B3F
:1019D0005367FEF74FFF0390FEF770FF034618466C
:1019E000FFF760F9FFF750F9034619460398FFF730
:1019F0008DFA059B002B03D10121002000F0BCFCD7
:101A0000FFF786FBC8E06A4B06939DF80330062B70
:101A100004D141F690716448FFF7C6F8069B002B8D
:101A200001D0069B00E0634B06939DF80330062B24
:101A300004D14FF4FD515C48FFF7B6F8069B002B2C
:101A400001D0069B00E05C4B06939DF80330013B00
:101A5000092B3BD801A252F823F000BF851A0000E1
:101A60008B1A00009B1A0000CD1A0000CD1A00004E
:101A7000AB1A0000CD1A0000CD1A0000CD1A0000EC
:101A8000C71A00000023079326E00122012100204D
:101A900000F01CF9022307931EE00122012101201E
:101AA00000F014F90123079316E0FEF707FF034641
:101AB0001846FFF7F7F8012202214048FFF78EF899
:101AC0000323079308E00423079305E041F6CB7155
:101AD0003548FFF769F85FE0069B079A1A605BE0FC
:101AE0009DF80330072B02D0092B04D007E02F4BC1
:101AF00000221A6709E02D4B01221A6705E042F225
:101B000055012948FFF750F846E045E09DF80330BD
:101B1000013B072B28D801A252F823F03D1B0000FF
:101B2000691B0000691B0000531B0000691B0000BB
:101B3000691B0000431B0000631B00000023079388
:101B400018E001220121042000F0C0F801230793CE
:101B500010E001220121022000F0B8F802230793CF
:101B600008E00323079305E042F2B3010E48FFF7B4
:101B70001BF811E00D4BD3F85C3123F03002079BCA
:101B80001B010A491343C1F85C3105E042F28A1196
:101B90000548FFF709F800BF0BB05DF804FB00BF74
:101BA000002D31010148E80150C0000000400E4006
:101BB00080400E4088400E4084400E40B0400E40B1
:101BC000014B1B68184670472010002010B584B0E8
:101BD00001901120FFF73EFD0346042B04D142F291
:101BE00073413748FEF7E0FF01220021022000F098
:101BF0006DF8019B5B78002B07D1019B9B78002B34
:101C000003D1019BDB78002B04D042F2AF412C487A
:101C1000FEF7CAFF00230393019B1B7C012B04D119
:101C200042F2B6412648FEF7BFFF019B1B7C022B08
:101C300001D101230393234B5B6A23F00102214965
:101C4000039B13434B62019B1B781A4608211E48D5
:101C5000FEF7C4FF019B9B88DB02019A527A114672
:101C6000184A0B43D362174B1B6B03F07F62019B37
:101C7000DB88DB021343019A927A1A43019B1B7A99
:101C8000DB0142EA0304019B1B7A1846FFF760F967
:101C900003460C4A23431363019B5B7B1A03019B9E
:101CA0009B7B1B011343019AD27B1A43019B1B7B35
:101CB0001B04044913434B6300BF04B010BD00BFB5
:101CC00050C0000000400E4024400E4000B589B0D6
:101CD00003468DF807300B468DF8063013468DF815
:101CE00005309DF80730042B3BD801A252F823F0B1
:101CF0004D1D00003B1D0000171D0000051D0000CC
:101D0000291D000001230593022304930123079357
:101D1000002306932BE00423059308230493032355
:101D200007930223069322E01023059320230493B4
:101D3000052307930423069319E04023059380238A
:101D40000493072307930623069310E04FF4807350
:101D500005934FF400730493092307930823069314
:101D600005E042F2D8514948FEF71EFF8BE09DF88E
:101D70000630002B6AD000238DF80F309DF8073015
:101D8000022B1BD1FFF7FAF80346002B16D1404B6C
:101D9000DB6B03F48063002B04D142F2E7513B4834
:101DA000FEF702FF01238DF80F303A4B5B6A03F018
:101DB0000103012B02D10120FFF7EAF8354A059B08
:101DC000136600BF06993448FEF728FF0346002B30
:101DD000F8D09DF80530002B55D000BF07992E484C
:101DE000FEF71CFF0346002BF8D09DF80730022BAE
:101DF00049D19DF80F30002B45D0264B5B6A03F08C
:101E00000103012B05D101222021022000F090F9CD
:101E100003E00021022000F02DF9022000F03EF83E
:101E20000290012200210220FFF750FF02990220B8
:101E300000F074F8174A059B136600BF079916480F
:101E4000FEF7ECFE0346002BF8D01CE0114A049B81
:101E5000136600BF0F4BD3F890300121069A01FAA8
:101E600002F21340002BF5D19DF80530002B0AD06B
:101E700000BF084BD3F890300121079A01FA02F213
:101E80001340002BF5D109B05DF804FB50C00000F1
:101E900000300E4000400E4090400E4000B585B02E
:101EA00003468DF807309DF80730013B032B24D8FB
:101EB00001A252F823F000BFC91E0000ED1E000071
:101EC000D51E0000E11E0000124B1B6AC3F308037D
:101ED00003931AE00F4B1B6903F07F03039314E095
:101EE0000C4B9B6903F07F0303930EE0094BD3F87F
:101EF0009C30C3F30A03039307E00023039342F2E9
:101F000064610548FEF750FE00BF039B184605B00C
:101F10005DF804FB00400E4050C0000000B585B0E5
:101F2000034600918DF807309DF80730013B032BE5
:101F300000F28D8001A252F823F000BF4D1F000077
:101F4000012000008D1F0000C71F0000009BB3F59B
:101F5000007F04D342F289614248FEF725FE009BD0
:101F6000C3F30803009300BF1A213F48FEF756FE53
:101F70000346002BF8D13D4B1B6A23F4FF7323F07B
:101F800001033A49009A13430B6266E0009B7F2BE2
:101F900004D942F296613348FEF706FE009B03F037
:101FA0007F03009300BF18212F48FEF737FE03463A
:101FB000002BF8D12D4B1B6923F07F022B49009B8E
:101FC00013430B6149E0009B7F2B04D942F2B161BE
:101FD0002448FEF7E9FD009B03F07F03009300BF58
:101FE00019212148FEF71AFE0346002BF8D11F4B9A
:101FF0009B6923F07F021D49009B13438B612CE0FA
:102000001A4BD3F8903003F00403002B04D042F2B3
:10201000C1611448FEF7C8FD144B5B6A23F030031E
:10202000124A43F010035362009BDB0903F00F03D5
:102030001846FEF78DFF03900C4B1A6B0C4B1340A8
:10204000009A1A430949039B13430B6305E042F2CC
:10205000DB610448FEF7A8FD00BF00BF05B05DF8D6
:1020600004FB00BF50C0000040410E4000400E4045
:1020700000F8FF0F00B585B003460A468DF807301B
:1020800013468DF806309DF80730022B04D042F23B
:10209000F3612448FEF788FDFEF770FF0346002B2E
:1020A00003D14FF4400303931DE09DF80630302B1D
:1020B0000DD0302B0FDC002B05D0202B0BD14FF493
:1020C000000303930FE04FF4400303930BE04FF43E
:1020D0004003039307E0144B039342F20E7111483F
:1020E000FEF762FD00BF00BF104BD3F89020039BAA
:1020F0001340039A9A42F7D1039B03F48003002B09
:102100000AD00A4BD3F8A03003F48063002B14BF2D
:1021100001230023DBB200E00123184605B05DF87F
:1021200004FB00BF50C00000FF33E10700400E4039
:1021300000B583B003468DF807300B468DF80630A6
:1021400013468DF805309DF80730022B1AD19DF803
:102150000630002B08D0114B4FF48062C3F8A82042
:102160000E4A9DF8063053669DF80530002B0FD0BF
:102170009DF806209DF8073011461846FFF77AFFB4
:10218000034607E042F244710548FEF70DFD00E00A
:1021900000BF0123184603B05DF804FB00400E4069
:1021A00050C0000082B0EFF310830093009B0193B6
:1021B00072B600BF019B184602B0704782B0019012
:1021C000019B002B01D162B600BF00BF02B0704777
:1021D00084B0EFF311830193019B03936023029377
:1021E000029B83F3118800BF039B184604B070471D
:1021F00084B00190019B0393039B83F3118800BF7C
:1022000000BF04B070470000054B5B68C3F30803D0
:10221000002B14BF01230023DBB21846704700BF18
:1022200000ED00E082B0EFF310830193019B03F017
:102230000103012B05D0EFF311830093009B5F2B6B
:1022400001D9012300E0002303F00103DBB21846AB
:1022500002B0704700B587B0039002910192029BD3
:102260001F2B03D991210A48FEF79EFC039B03F123
:10227000424303F58013DA00029B13449B0005934D
:10228000059B019A1A6000BF07B05DF804FB00BF10
:10229000F0C0000084B001900091019B03F1424323
:1022A00003F58013DA00009B13449B000393039B08
:1022B0001B68184604B07047054B1B6803F04003C9
:1022C000002B01D1012300E000231846704700BF16
:1022D0003C300E4008B5FFF7EFFF034683F00103E3
:1022E000DBB2002B08D100BF12210448FFF7D2FF58
:1022F0000346002BF8D100E000BF08BD04300E40BB
:1023000008B5FFF7E7FF044B5B681B0C03F0030302
:10231000DBB2184608BD00BF00300E4082B001900D
:10232000024A019BD36200BF02B0704700300E40EA
:10233000014B5B6A1846704700300E40024B00228A
:102340005A6300BF704700BF00300E40024B4AF690
:10235000E8525A6300BF704700300E4082B0034617
:102360008DF807309DF80730C3F10203102202FAFE
:1023700003F3184602B0704700B585B001900B46D4
:102380008DF80330FFF798FF034683F00103DBB2BB
:10239000002B2AD1019B002B0FD1164BD3F8003113
:1023A0001B0A03F01F0301330293FEF787FA02466C
:1023B000029B02FB03F3039301E0019B03930E4B8B
:1023C0001B78002B0AD0039B0C4A934206D89DF839
:1023D00003301946022000F013F807E09DF803309F
:1023E0001946002000F00CF800E000BF05B05DF8D1
:1023F00004FB00BF00400E4084110020002D31017D
:1024000010B586B003460A468DF8073013468DF89E
:102410000630FFF751FF034683F00103DBB2002BC8
:102420003FD1FFF76DFF03461A469DF807309342F0
:1024300039D01E4BD3F800311B0A03F01F030133C0
:102440000593FEF73BFA0490049B059A02FB03F305
:1024500003939DF80730022B0CD1039B144A93423F
:1024600004D940F231611348FEF79EFB0221049823
:10247000FEF74CFD104C9DF807301846FFF76EFF35
:10248000034623619DF80630002B01D0FFF722FFA1
:102490009DF80730002B07D100210498FEF736FD88
:1024A00002E000BF00E000BF06B010BD00400E40DB
:1024B000002D310168C1000000300E4000B583B02E
:1024C00001900E4B1B6823F44072019B5B781B024A
:1024D0000A4913430B60019B5B78022B0AD1084B1E
:1024E0005B6A03F00053002B04D040F26D61054895
:1024F000FEF75AFB00BF03B05DF804FB00300E404E
:1025000000400E4068C100000123184670470000DB
:1025100000B583B00C4BDB6E0B4A43F08073D3667F
:1025200000210A48FFF7B6FE0190019B002B03D063
:10253000042000F075FD02E0002000F071FD00BFF6
:1025400003B05DF804FB00BF00300E404C300E407D
:1025500000B58BB001230993099B1B050893424BDF
:10256000DB6C1B0A03F00F030793404B1B881A46D2
:102570003E4B1B8828335B08134403F12801079B5B
:102580005A1C13469B001344B1FBF3F3013B069323
:10259000069B059307230493049A059B934228BF47
:1025A00013460693069B1B060693069B23F0E063E7
:1025B000002B04D040F689012D48FEF7F5FA089B60
:1025C00023F4E003002B04D040F68A012848FEF7EC
:1025D000EBFA254BDB6C23F0EE620699089B0B436C
:1025E00021491343CB64234BB3F90030002B36DB76
:1025F000204BB3F90030ADF80E30BDF80E20BDF819
:102600000E3028335B08134403F12802079B013383
:102610005900079B01335B080B44B2FBF3F30293B1
:10262000029B019307230093009A019B934228BFCA
:1026300013460293029B1B010293029B23F070033B
:10264000002B04D040F6A2010948FEF7ADFA064B74
:102650001B6D23F070020449029B13430B6500BFFE
:102660000BB05DF804FB00BF00300E407E1100206F
:1026700068C100008211002082B001900B46ADF8C5
:102680000230019B9AB2044B1A80044ABDF8023012
:10269000138000BF02B070477E110020821100201D
:1026A00000B583B003468DF807309DF80730002B46
:1026B00002D0012B04D007E0084B094A9A6509E0D3
:1026C000064B084A9A6505E040F6CE010648FEF73B
:1026D0006BFA00BF00BF03B05DF804FB00300E4092
:1026E00077402057372110B768C1000000B585B08A
:1026F00003468DF807300B468DF8063013468DF8EB
:102700000530344BD3F8803103939DF80630032B0A
:102710001CD801A252F823F029270000312700001D
:102720003B27000045270000039BDBB2039314E026
:10273000039B1B0ADBB203930FE0039B1B0CDBB272
:1027400003930AE0039B1B0E039306E040F612116D
:102750002148FEF729FA002338E09DF80530002BC8
:1027600016D1039B1B030393039B23F47043002B9D
:1027700006D040F61D111848FEF716FA002325E092
:10278000164BDB6E23F470421449039B1343CB6654
:102790009DF80530012B18D1039B1B030393039B6A
:1027A00023F47043002B06D040F629110A48FEF7A7
:1027B000FBF900230AE0094BD3F8EC3023F4704214
:1027C0000649039B1343C1F8EC300123184605B0BA
:1027D0005DF804FBB081E00F68C1000000300E40DE
:1027E00000B589B00390029111461A460B468DF848
:1027F000073013468DF80630002307930023069315
:102800009DF806301B029DF80720002A01D0012206
:1028100000E0002213430593059B40F201329342EE
:102820005CD0059B40F20132934200F29380059BFD
:10283000B3F5407F00F08280059BB3F5407F00F246
:102840008980059B40F2012293423BD0059B40F2D8
:10285000012293427ED8059BB3F5007F62D0059B91
:10286000B3F5007F76D8059B40F2011293421DD04C
:10287000059BB3F5817F6DD2059BB3F5807F45D075
:10288000059BB3F5807F65D8059B002B32D0059B57
:10289000012B5FD1374BD3F874310793079B1B0A89
:1028A000DBB20693079BDBB2079359E0314BD3F8B9
:1028B00074310793079B1B0E0693079B1B0CDBB21F
:1028C00007934DE02B4BD3F878310793079B1B0AF6
:1028D000DBB20693079BDBB2079341E0254BD3F8AD
:1028E00078310793079B1B0E0693079B1B0CDBB2EB
:1028F000079335E01F4BD3F86C310793079B1B0AF6
:10290000DBB20693079BDBB2079329E0194BD3F8A0
:102910006C310793079B1B0E0693079B1B0CDBB2C6
:1029200007931DE0134BD3F870310793079B1B0AE5
:10293000DBB20693079BDBB2079311E00D4BD3F894
:1029400070310793079B1B0E0693079B1B0CDBB292
:10295000079305E040F68E110748FEF725F900BF02
:10296000039B079A1A60029B069A1A6000BF09B07F
:102970005DF804FBB081E00F68C1000000B585B0D0
:1029800003468DF80730424B5B6B012B0CBF0123D4
:1029900000238DF80F30FFF7D9FC00BF3C4B9B6F35
:1029A00003F00103002BF9D1394B1B6C03F0030337
:1029B0000293029B002B04D001220D213548FFF722
:1029C00049FC029BDBB29DF807209A4209D19DF891
:1029D0000730002B58D100220D212E48FFF73AFC7A
:1029E00052E0029B032B02D0029B002B22D19DF8C8
:1029F0000730022B03D09DF80730012B1AD14FF47A
:102A00000020FFF78BFC00BF214B9B6F03F00103FD
:102A1000002BF9D11E4B1B6C23F003031C4A43F01F
:102A20000103136400BFFFF783FC034603F4002394
:102A3000002BF8D000BF164B9B6F03F00103002B57
:102A4000F9D1134B1B6C23F003029DF8073010499A
:102A500013430B6400BF0E4B9B6F03F00103002B6D
:102A6000F9D19DF80730002B14BF01230023DBB2FE
:102A70001A460D210748FFF7EDFB9DF80F30002B9C
:102A800003D0FFF75BFC00E000BF05B05DF804FB7E
:102A900000300E4054300E4000B585B001906C4BB4
:102AA00002229A636A4B9B6B03F00F03022B06D042
:102AB00040F64B216748FEF777F80023C3E0FFF7A5
:102AC00023FD019B1B89C82B04D940F65521614881
:102AD000FEF76AF8019B9A88019B1B899A4204D9E8
:102AE00040F656215B48FEF75FF8019BB3F90C30C6
:102AF000C82B04DD40F657215648FEF755F8019BD8
:102B00005B78012B09D1019B9B88C82B12D940F619
:102B10005B215048FEF748F80CE0019B5B78022BE4
:102B200008D1019B9B880A2B04D94FF426614948A0
:102B3000FEF73AF8019BDB8842F21072934204D907
:102B400040F668214348FEF72FF8019BDB884A2BAB
:102B500002D80023039315E0019BDB88B3F5FA7FCD
:102B600003D24FF0805303930CE0019BDB8840F6C7
:102B7000C312934203D84FF00053039302E04FF087
:102B800040530393324BDB6C23F0405323F001039B
:102B9000019AB2F90C20002A01DB012100E000219A
:102BA000039A0A432A491343CB64294BD3F8EC30E8
:102BB000274A43F44073C2F8EC30019B9A88264BB5
:102BC0001A80FFF7A5FC019B1B891A46019BB3F9EC
:102BD0000C3019461046FFF74FFD019B9B881846A5
:102BE00000F0ACF9019B9B7B1846FFF759FD019B58
:102BF0005B8801220121184600F032F8034683F079
:102C00000103DBB2002B06D040F69F211148FDF7EF
:102C1000CBFF002317E00E4BDB6B0D4A43F48063C0
:102C2000D363019B5B781846FFF7A8FE019B9B7A54
:102C3000202B01D1012300E000231A46052107487B
:102C4000FFF708FB0123184605B05DF804FB00BF41
:102C500000300E4068C10000801100203C300E4062
:102C600010B594B001900B468DF8033013468DF8E3
:102C70000230002313930023119309AB00221A6042
:102C80005A609A6006AB00221A605A609A6003ABE1
:102C900000221A605A609A60A44B1B88ADF8083075
:102CA00000238DF80A30019BB3F5E16F06D3019B39
:102CB00040F6B832934201D8012300E000238DF89A
:102CC00043309DF8433003F001038DF843309DF805
:102CD000433083F00103DBB2002B06D040F6EE2137
:102CE0009348FDF761FF00231DE1019BB3F5E16F00
:102CF0008CBF012300238DF842309DF84230002B19
:102D00000AD04FF4E163139340F6B8331193119A4C
:102D1000139BD31A129309E04FF4966313934FF465
:102D2000E1631193119A139BD31A12939DF84230C9
:102D3000002B0BD07F4BD3F868310893089B1B0EF8
:102D40000593089B1B0CDBB208930AE0794BD3F880
:102D500068310893089B1B0ADBB20593089BDBB222
:102D60000893754BDB6C1B0FDBB203F00303DBB284
:102D70008DF808309DF808309DF8422003A906A878
:102D8000FFF72EFD6C4BD3F8EC301B0ADBB203F0DF
:102D90000303DBB28DF809309DF809409DF842200D
:102DA00003AB191D06AB181D2346FFF719FD019A49
:102DB000139BD31A0599089A8A1A03FB02F2129BF5
:102DC000B2FBF3F30B930B9A089B13440B93019AFA
:102DD000139BD31A0399069A8A1A03FB02F2129BD9
:102DE000B2FBF3F30993099A069B13440993019AE2
:102DF000139BD31A0499079A8A1A03FB02F2129BB7
:102E0000B2FBF3F30A930A9A079B13440A930B9AB3
:102E1000059B9A4213D80B9A089B9A420FD30A9AA1
:102E2000049B9A420BD80A9A079B9A4207D3099AA5
:102E3000039B9A4203D8099A069B9A4206D240F60F
:102E40003C313B48FDF7B0FE00236CE09DF80230BA
:102E5000002B12D0384BDB6D23F4FE4323F002032A
:102E60000B9A120213439DF84220002A01D002223D
:102E700000E0002230491343CB659DF80330002B5E
:102E800050D09DF808109DF8423000221846FFF7F8
:102E90002DFC034683F00103DBB2002B06D040F685
:102EA0004B312348FDF780FE00233CE09DF80910DC
:102EB0009DF8423001221846FFF718FC034683F0C4
:102EC0000103DBB2002B06D040F653311848FDF762
:102ED0006BFE002327E0099B0F930A9B0E930E9A2B
:102EE0000F9B934238BF13460993099B0D93E72329
:102EF0000C930C9A0D9B934228BF134609930E4BDB
:102F00005B6E23F4FF7323F00103099A520013430D
:102F10009DF84220002A01D0012200E0002206494B
:102F200013434B660123184614B010BDE0C10000E6
:102F300068C10000B081E00F00300E4000B585B0E0
:102F4000019000230393344B1B6F03F0070302939C
:102F5000314BDB6C03F00103002B14D0029B012BDF
:102F600011D9019B132B02D8042303933DE0019B4D
:102F7000132B05D9019B272B02D80823039334E098
:102F80001023039331E0244BDB6C03F00103002B8F
:102F900014D1029B012B11D8019B092B02D80423C9
:102FA000039322E0019B092B05D9019B132B02D827
:102FB0000823039319E01023039316E0164BDB6CF0
:102FC00003F00103002B0BD0029B012B08D8019BBF
:102FD000272B02D80823039307E01023039304E070
:102FE00040F691310D48FDF7DFFD039B013B039354
:102FF000039B1A02039B1B0313430393064BDB6CD7
:1030000023F47F420449039B1343CB64FFF7A0FAE8
:1030100000BF05B05DF804FB00300E4068C1000041
:1030200000B585B003468DF8073000211248FFF740
:1030300031F90390039B002B03D19DF80730012B3E
:1030400007D9039B002B04D140F6AF310B48FDF7A5
:10305000ABFD0B4B1B6F23F007029DF807300849AF
:1030600013430B67074B1B881846FFF767FF00BF2A
:1030700005B05DF804FB00BF4C300E4068C1000095
:1030800000300E408011002000B583B0144B0222A6
:103090009A63134BDB6B124A43F48063D36300BF24
:1030A0000F4B9B6F03F00103002BF9D10C4B032254
:1030B0001A640B4B1B6C032B0CBF012300238DF8F0
:1030C00007309DF80730002B04D140F6DD3105486C
:1030D000FDF76AFD9DF80730184603B05DF804FB64
:1030E00000300E4068C1000084B001900091019B47
:1030F00003F1C0630393039B009A1A6000BF04B0FE
:10310000704784B001900091019B03F180630393A9
:10311000039B009A1A6000BF04B0704700B587B0E7
:10312000039002910192FFF73DF80590039B1A6806
:10313000029BDB431A400199029B0B401A43039BFD
:103140001A600598FFF73AF800BF07B05DF804FB76
:1031500000B583B0034600918DF807309DF8073025
:10316000002B42D09DF80730012B3BD09DF8073053
:10317000022B34D09DF80730032B2DD09DF807305B
:10318000042B27D09DF80730052B20D09DF8073061
:10319000062B1AD09DF80730072B14D09DF8073066
:1031A000082B0ED09DF80730092B07D09DF807306B
:1031B0000A2B01D107231AE0002318E04FF4404303
:1031C00015E00F2313E0002311E000230FE04FF67A
:1031D000FF730CE000230AE04FF47F4307E040F662
:1031E000FF7304E04FF6C07301E040F2FF33009A32
:1031F000D34003F00103002B04D14FF479710D4843
:10320000FDF7D2FC9DF8072013465B0013441B0119
:103210000C3303F1804303F520430121009A01FAA6
:1032200002F211461846FFF76CFF00BF03B05DF8CD
:1032300004FB00BF5CC2000000B583B003460091F0
:103240008DF807309DF80730002B42D09DF80730ED
:10325000012B3BD09DF80730022B34D09DF807306E
:10326000032B2DD09DF80730042B27D09DF8073075
:10327000052B20D09DF80730062B1AD09DF807307B
:10328000072B14D09DF80730082B0ED09DF807307F
:10329000092B07D09DF807300A2B01D107231AE02C
:1032A000002318E04FF4404315E00F2313E0002300
:1032B00011E000230FE04FF6FF730CE000230AE05B
:1032C0004FF47F4307E040F6FF7304E04FF6C0730E
:1032D00001E040F2FF33009AD34003F00103002BDA
:1032E00004D140F213410D48FDF75EFC9DF8072024
:1032F00013465B0013441B010C3303F1804303F5B9
:1033000020430121009A01FA02F211461846FFF704
:10331000EBFE00BF03B05DF804FB00BF5CC2000021
:1033200000B583B0034600918DF807309DF8073053
:10333000002B27D09DF80730012B23D09DF80730B4
:10334000022B1FD09DF80730032B1BD09DF80730B0
:10335000042B1CD09DF80730052B13D09DF80730A7
:10336000062B14D09DF80730072B10D09DF807309E
:10337000082B07D09DF80730092B03D09DF80730A4
:103380000A2B04D1009B23F00113002B03D07D21D5
:103390000B48FDF709FC9DF8072013465B0013441A
:1033A0001B0103F1804303F52043009A4FF0011104
:1033B0001846FFF7B3FE00BF03B05DF804FB00BF83
:1033C000D4C2000000B585B00291019303468DF888
:1033D0000F3013468DF80E309DF80F30002B42D081
:1033E0009DF80F30012B3BD09DF80F30022B34D0CD
:1033F0009DF80F30032B2DD09DF80F30042B27D0D4
:103400009DF80F30052B20D09DF80F30062B1AD0D9
:103410009DF80F30072B14D09DF80F30082B0ED0DD
:103420009DF80F30092B07D09DF80F300A2B01D1E2
:1034300007231AE0002318E04FF4404315E00F2360
:1034400013E0002311E000230FE04FF6FF730CE0C0
:1034500000230AE04FF47F4307E040F6FF7304E0E7
:103460004FF6C07301E040F2FF33029AD34003F0FD
:103470000103002B04D140F21D113D48FDF794FBE0
:103480009DF80E30002B0FD0019B002B06D09DF82D
:103490000F3002991846FFF7CFFE05E09DF80F3078
:1034A00002991846FFF754FE029B072B23D8314997
:1034B0009DF80F2013465B0013441B010B4404339B
:1034C0001A68029B9B000F2101FA03F3DB431340B0
:1034D0009DF80E10029A920001FA02F21146254858
:1034E0009DF80F20194313465B0013441B0103444E
:1034F0000433196024E01F499DF80F2013465B0038
:1035000013441B010B4408331A68029B083B9B00C1
:103510000F2101FA03F3DB4313409DF80E10029ACA
:10352000083A920001FA02F2114612489DF80F2063
:10353000194313465B0013441B010344083319600D
:103540009DF80E30002B0FD1019B002B06D09DF86B
:103550000F3002991846FFF76FFE05E09DF80F3017
:1035600002991846FFF7F4FD00BF05B05DF804FBB3
:10357000D4C2000000A0004000B587B003900291C3
:103580000192029B1F2B03D991210A48FDF70CFBE6
:10359000039B03F1424303F58013DA00029B1344BB
:1035A0009B000593059B019A1A6000BF07B05DF868
:1035B00004FB00BF4CC3000000B583B00190009134
:1035C000019B022B03D94C211748FDF7EDFA009B14
:1035D0005B791F2B03D94F211348FDF7E5FA009BB8
:1035E0001B781A46009B5B789B001A43009B9B78D4
:1035F0009B011A43009BDB781B011A43009B1B793C
:10360000DB021A43009B5B791B031A43009B9B79E7
:103610005B0406491A43019B04331B010B441A60E7
:1036200000BF03B05DF804FBC4C3000000200440E9
:1036300000B583B003468DF807309DF807301A4671
:1036400000210348FFF798FF00BF03B05DF804FBBB
:103650000020044082B00190019B1B78002B01D018
:10366000012200E00022019B5B78002B01D00423A3
:1036700000E000231343019A9278002A01D010221F
:1036800000E000221343019AD278002A01D02022C0
:1036900000E000221A43019B1B791B021A43019B85
:1036A0005B791B031343019A9279002A02D04FF4ED
:1036B000004200E000221A43019BDB791B04134304
:1036C000019A127A002A02D04FF4003200E0002260
:1036D000024913430B6000BF02B070470020044052
:1036E00082B001900B468DF803309DF8033063F0F3
:1036F0007F03DBB21A46019B9A6500BF02B0704798
:1037000000B587B0039002910192019B002B04D178
:103710004FF422711248FDF747FA029B002B03D1A8
:103720001048FDF771FD0290029B5A1E019B5B0041
:10373000B2FBF3F30593059B1B020593059A0A4B15
:103740001340002B04D040F2A5210548FDF72CFAC8
:10375000039B059A5A6100BF07B05DF804FB00BFE8
:103760003CC4000040410500070080FF00B583B065
:1037700001900091019B3B4A934210D0019B3A4A31
:1037800093420CD0019B394A934208D0019B384A9E
:10379000934204D04FF456713648FDF705FA01986C
:1037A00000F06AF8019B1A68009B1B8A43F0010332
:1037B0009BB21946009B9B7B002B02D04FF4806389
:1037C00000E000230B431A43019B1A60019B1B6816
:1037D000009A127D002A02D04FF0005200E0002231
:1037E0001A43019B1A60009B9B7C002B05D0009B19
:1037F000DB7C19460198FFF773FF009B1B7B43F4AA
:103800008052019B5A60009B5968009B9B681A4636
:103810000198FFF775FF009B5B7B002B02D0019B9B
:103820001022DA60009B5B7D002B05D0019B1B689A
:1038300043F48032019B1A60009B9B7D1B0703F0C1
:10384000E042009BDB7D1B0503F4E0031A43019B70
:103850001A66009B1B781A46019BDA6000BF03B012
:103860005DF804FB00000140000401400008014035
:10387000000C01403CC4000000B583B00190019BE6
:103880002D4A934210D0019B2C4A93420CD0019BAD
:103890002B4A934208D0019B2A4A934204D040F21B
:1038A0002E412948FDF780F9019B40F6AA62DA60B3
:1038B000019B00221A60019B41F205025A60019BA4
:1038C00000229A60019B00225A61019B0022DA6467
:1038D000019B1E4A9A64019B00221A66019B0022EA
:1038E0005A67019B00229A67019B0022DA67019BBD
:1038F000114A93420BD0019B104A934207D0019B7F
:103900000F4A934203D0019B0E4A934202D1019B7E
:1039100000221A65019B00229A65019B074A934287
:1039200003D0019B074A934202D1019B0022DA6532
:1039300000BF03B05DF804FB00000140000401403B
:1039400000080140000C01403CC40000F9FF0100E8
:1039500082B001900B468DF8033000BF019B1B69BC
:1039600003F04003002BF9D09DF80320019B5A631C
:1039700000BF02B07047000000B58BB00790069101
:1039800005920493069B0993049B002B01D100F040
:10399000FCF8099B002B01D1094B0993049B02936E
:1039A00000230193012300930423059A09990798A2
:1039B00000F008F80890089B18460BB05DF804FB6F
:1039C0002C10002000B589B0059004910392029359
:1039D000039B002B0DD10C9B08221A700C9B2A4ACA
:1039E0005A600C9B4FF4D9629A600C9B274ADA60AC
:1039F000FEE7029B002B05D0029B5A1E029B134040
:103A0000002B02D0029B002B01D1012300E00023F8
:103A1000002B0DD10C9B08221A700C9B1A4A5A607D
:103A20000C9B40F2CB629A600C9B184ADA60FEE76E
:103A3000FEF7CEFB07900C9B01930B9B00930A9B18
:103A4000029A0399049800F023F806900C9B1B78C7
:103A5000002B11D00798FEF7CBFB0C9B16221A7097
:103A60000C9B094A5A600C9B40F2D7629A600C9BEF
:103A7000064ADA60002303E00798FEF7B9FB069BCD
:103A8000184609B05DF804FBB4C4000040C500004E
:103A90008AB00390029101920093019B002B01D008
:103AA000019B00E00423009A934238BF1346099318
:103AB000039B9B681A46099B5B421A40039B9B68C9
:103AC0001946099B013B0B40002B01D0099B00E0EC
:103AD000002313440893089A029B1A44009B5B42FC
:103AE0001A400899029B1944009B013B0B40002B94
:103AF00001D0009B00E0002313440793039B5B6805
:103B00001A46039B9B68D31A01330693039B9B6859
:103B10001A46079B9B1A0593069A059B9A4216D252
:103B20000A9B002B04D0059A069BD21A0A9B1A60A6
:103B30000B9B16221A700B9B0F4A5A600B9B40F28C
:103B400022729A600B9B0D4ADA60002310E0079AFC
:103B5000039B9A600B9B00221A700B9B064A5A60CB
:103B60000B9B4FF4E5629A600B9B044ADA60089B5A
:103B700018460AB0704700BFB4C4000058C5000022
:103B800008B500F00DF800BF08BDFEE782B0019057
:103B9000024A019B136000BF02B0704788350020C5
:103BA00008B5034B00221A6003F034FD00BF08BDC6
:103BB0008835002000BF7047F0B587B00190019BA9
:103BC000002B01D1FFF7E1FF894B5B68002B2CD064
:103BD000874B1B68002B10D1854B196B844B5B689E
:103BE0009A00019B8348FFF7C7FE0346824A136091
:103BF000019B1B78002B04D010E27D4B1B687E4A92
:103C000013607D4B1B687D4A1360794B5B687C4A6F
:103C10001360774B5B689B007A4A13607A4B1A6893
:103C2000784B1B681344784A1360714B1B89002B37
:103C300024D06F4B196B6E4B1B891A01019B734883
:103C4000FFF79AFE0346724A1360019B1B78002B14
:103C500040F0D9816E4B1B686E4A1360644B1A8921
:103C60006D4B1A80624B1B891B016C4A1360664BBB
:103C70001A686A4B1B681344634A13605C4B5B69A8
:103C8000002B40D05A4B1B69002B10D1584B196B9D
:103C9000574B5B699A00019B6148FFF76DFE034635
:103CA000604A1360019B1B78002B04D0B6E1504B97
:103CB0001B695C4A13604E4B1A7E5B4B1A704C4B6F
:103CC000DB695A4A1360574B1B68594A1360484BCB
:103CD0005B69474AD26802FB03F3564AA2FB0323FF
:103CE0005B09554A1360424B5B69544A1360404B71
:103CF0005B699B00524A1360434B1A68504B1B6828
:103D00001344414A13603A4B5B6A002B41D0384B55
:103D10001B6A002B10D1364B196B354B5B6A9A002E
:103D2000019B4848FFF728FE0346474A1360019B62
:103D30001B78002B04D071E12D4B1B6A424A1360A3
:103D40002B4B93F82820414B1A703F4B1B68404A7D
:103D50001360274B5B6A264AD26802FB03F3354A9D
:103D6000A2FB03235B093B4A1360214B5B6A3A4A7F
:103D700013601F4B5B6A9B00384A13601C4BDB6A65
:103D8000374A1360204B1A68344B1B6813441E4A91
:103D90001360174B5B6B334A136003F01FFD05F094
:103DA00063F90390039B002B0DD0019B01221A7035
:103DB000019B2D4A5A60019B4FF4D7729A60019B78
:103DC0002A4ADA602AE105F0CBFA0246254B1B6845
:103DD0009A424DD2019B09221A70019B224A5A60D5
:103DE000019B4FF4D9729A60019B204ADA60FEE78A
:103DF0004010002074C500008C3500209C35002048
:103E0000A0350020A4350020E835002088C500003A
:103E100090350020A8350020AC350020B0350020BA
:103E20009CC5000094350020B4350020B835002032
:103E3000BC3500201F85EB51C0350020C435002063
:103E4000C8350020B8C5000098350020CC350020CA
:103E5000D4350020D8350020DC350020E0350020A6
:103E6000D0350020E4350020D4C5000074C6000021
:103E700005F076FA02466A4B1B689A4203D1694BF9
:103E800000221A6015E005F06BFA034600221E4678
:103E9000174632463B464FF000004FF0010107F055
:103EA0002DF902460B465E4B1B6802FB03F35D4A8D
:103EB00013605B4B1B68B3F57A7F03D85A4B002223
:103EC0001A6014E0564B1B6800221C461546224619
:103ED0002B464FF000004FF0010107F00FF90246AA
:103EE0000B464FF47A7302FB03F34F4A13604F4BB8
:103EF00000221A704E4B00221A704E4B00221A609C
:103F00004D4B00221A604D4B00221A704C4B002280
:103F10001A704C4B00221A70019803F04FF80346B8
:103F2000494AA2FB0323DB08484A1360019B1B7824
:103F3000002B6AD1464B1B68002B1DD0454B1B68DC
:103F40000593059B002B17D0414B1B68049308E099
:103F5000049B013B0493059B00221A60059B0433DC
:103F60000593049B002BF3D13A4B1B68384A126827
:103F70001146184602F048FF374B00221A7001F034
:103F8000BBFE00F02BFD354B00221A60344B0022A3
:103F90001A80344B1B88002B06D0019801F0BCF925
:103FA000019B1B78002B32D12F4B00221A602F4B24
:103FB00000221A802E4B00221A602E4B00221A80FB
:103FC0002D4B00221A602D4B00221A80019802F01E
:103FD000F1FD019B1B78002B1BD1019802F006F923
:103FE000019B1B78002B16D1019803F0D3F9019B9C
:103FF0001B78002B11D101F02DF8FFF7DBFD204BD2
:1040000001221A700AE000BF08E000BF06E000BF0E
:1040100004E000BF02E000BF00E000BF07B0F0BD59
:10402000E43500200C360020083600201037002030
:10403000383A0020883C00208C3C00202E3700209D
:104040002F370020403A0020CDCCCCCC3C3A002089
:10405000A03500209C3500204E3B00201437002066
:1040600018370020AC350020283700202C370020DE
:104070003037002034370020443A0020483A0020EE
:104080001137002010B586B07F4B1B78012B00D074
:10409000FEE77E4B1B78002B40F0F280FEF798F88D
:1040A00005907B4B1B788DF8133001F03BFE0346E7
:1040B0001A46774B1A70764B1B78402B7FD0744B87
:1040C0001B781946734A0B465B000B449B00134454
:1040D0001B68714A13609DF81330402B03D102F026
:1040E000D3F8AFF300806C4B1A686C4B1B689A4294
:1040F00025D1002002F0D0FC03468DF80B309DF84E
:104100000B30012B04D0654B1B68184603F08EFB67
:10411000634B1B78002B0ED05F4B1B681B6F002B73
:1041200004D15D4B1B68184600F002FE5A4B1B6819
:10413000184600F0D5FD0598FEF75AF8A1E0584B57
:104140001B78002B33D0574B1B681B6F002B2ED0D6
:1041500001AB1946544805F09BF80390039B002BD4
:1041600006D1504B1B68019A1A674F4805F01AF8A0
:104170004C4B1B681B6F002B19D14A4B1B6893F8E3
:1041800033301A4613465B0013449B00414A1344E4
:10419000184600F0DBFC3E4B1B7819463D4A0B46A7
:1041A0005B000B449B0013441B683B4A13603A4B73
:1041B0001B68D3F8BC200132C3F8BC2002E0364BA8
:1041C00000221A60394B1B680133384A1360304BA8
:1041D0001B78402B3DD0314B1A682F4B1B689A42FD
:1041E0002FD02E4B1B68002B2BD003F035FA024644
:1041F0002A4B1B68D3F8C4309A4208D303F02CFA38
:104200000246264B1B68D3F8C430D31A08E003F0EB
:1042100023FA0246214B1B68D3F8C430D31A013B62
:104220001E4A1268C2F8C0301C4B1B68D3F8C81075
:104230001A4B1B68D3F8C020184B1B680A44C3F8FC
:10424000C820154B1C6803F007FA0346C4F8C430B5
:104250000EE002F00FF8114B1B68002B06D00F4B3D
:104260001C6803F0F9F90346C4F8C430AFF30080CA
:1042700003F047FA0598FDF7BBFFBFF36F8F00E02F
:1042800000BF06B010BD00BF10370020383A002034
:104290002F370020383700208C3C0020883C00203D
:1042A000403A002004360020EC350020443B00203A
:1042B00000B585B00190019B002B01D1FFF765FC93
:1042C000FDF7A2FF0346002B0DD0019B20221A70A0
:1042D000019B254A5A60019B40F219329A60019B6A
:1042E000224ADA60FEE7224B1B78012B0DD0019B9E
:1042F00002221A70019B1C4A5A60019B40F21D3237
:104300009A60019B194ADA602AE01A4B1B78F92B54
:104310000DD9019B1E221A70019B134A5A60019B02
:1043200040F222329A60019B104ADA6018E0FDF7F1
:104330004FFF03900F4B1B780133DAB20D4B1A700D
:104340000398FDF755FF019B00221A70019B064A56
:104350005A60019B40F22D329A60019B034ADA6059
:1043600005B05DF804FB00BFD4C500007CC60000AA
:1043700010370020383A002000B585B00190019B2D
:10438000002B01D1FFF701FCFDF73EFF0346002B98
:104390000DD0019B20221A70019B304A5A60019B6C
:1043A00040F245329A60019B2D4ADA60FEE72D4BC0
:1043B0001B78012B0DD0019B02221A70019B274A0A
:1043C0005A60019B40F249329A60019B244ADA60AC
:1043D00041E0254B1B78002B0DD1019B1F221A7049
:1043E000019B1E4A5A60019B40F24E329A60019B2B
:1043F0001B4ADA602FE0FDF7EBFE03901A4B1B78A7
:10440000013BDAB2184B1A70174B1B78002B10D0F7
:104410000398FDF7EDFE019B2D221A70019B0F4AB8
:104420005A60019B40F256329A60019B0C4ADA6056
:1044300011E00398FDF7DCFEFFF724FE019B00224C
:104440001A70019B054A5A60019B4FF458729A609A
:10445000019B034ADA6005B05DF804FBD4C5000097
:1044600088C6000010370020383A002000B585B01B
:104470000190019B002B01D1FFF787FB3F4B1B787D
:10448000012B0DD0019B13221A70019B3C4A5A60EC
:10449000019B40F2F6329A60019B3A4ADA60FEE7ED
:1044A0000023ADF80E30BDF80E300133ADF80E30FC
:1044B000BDF80E300133ADF80E30334B1B88BDF81C
:1044C0000E209A420DD3019B09221A70019B2C4A9F
:1044D0005A60019B40F201429A60019B294ADA60CE
:1044E000FEE72A4B1B78002B0DD0019B1F221A7070
:1044F000019B234A5A60019B40F204429A60019B4F
:10450000204ADA60FEE7FDF78DFE0346002B0DD052
:10451000019B1F221A70019B194A5A60019B40F2AD
:1045200007429A60019B174ADA60FEE701F0FAFB46
:1045300003461A46164B1A70154B1A78154B1A700B
:10454000134B1B781946144A0B465B000B449B0027
:1045500013441B68114A1360104B1B68104A136008
:104560000A4B01221A7001F07BFE03F08BF8FFF773
:104570000CFB00BF05B05DF804FB00BF1137002045
:10458000D4C5000098C600004C3B00201037002026
:104590002F3700202E370020383700208C3C002099
:1045A000883C002000B587B003900B4601928DF83F
:1045B0000B301D4B1B689DF80B2083F830201A4BE5
:1045C0001B68002283F83120184B1B78002B06D083
:1045D000174B1B6800221A67164804F0E3FD124BC4
:1045E0001B680199184600F02FFC039B002B0DD08F
:1045F000039B083305930C4B1B68039ADA620A4B42
:104600001B681946059800F097F803E0064B1B68F5
:104610000022DA62044B1B681946039800F00CF87C
:1046200000BF07B05DF804FB883C0020403A002042
:1046300004360020EC35002084B001900091019BED
:10464000002B0FD0019B5A68009BC3F8E820019B08
:1046500008330393039B1B680293029BDA68019B58
:10466000DA6116E0009B93F83030022B02D0072B62
:1046700005D009E0009B084AC3F8E82009E0009B48
:10468000064AC3F8E82004E0009B054AC3F8E82086
:1046900000BF00BF04B070475CC6000064C60000E5
:1046A00070C6000084B001900091009B0C4AC3F8D2
:1046B000E820019B002B10D0019B08330393039B40
:1046C0001B680293029B002B04D0029BDA68019BBB
:1046D000DA6102E0019B024ADA6100BF04B0704770
:1046E00070C6000000B585B00190019BDB6A0393A2
:1046F000039B08330293029B1B685B6A002B09D063
:10470000019800F082F8019B039ADA6201990298FD
:1047100000F012F800BF05B05DF804FB82B0019014
:10472000019B00221A60019B00225A60019B00221B
:104730001A8100BF02B0704784B001900091009BC5
:1047400093F833308DF80B30019B1B68002B0FD191
:10475000019B01221A81009B00225A62009B0022C9
:104760009A62019B009A1A60019B009A5A6049E084
:10477000019B1B8901339AB2019B1A81019B1B6823
:10478000039309E0039B93F833309DF80B209A4282
:1047900006D3039B5B6A0393039B002BF2D100E0DB
:1047A00000BF039B002B0ED1009B00225A62019B8D
:1047B0005A68009B9A62009B9B6A009A5A62019B0E
:1047C000009A5A601EE0039B9B6A002B0CD1009B51
:1047D000039A5A62009B00229A62039B009A9A6293
:1047E000019B009A1A600DE0009B039A5A62039B9A
:1047F0009A6A009B9A62009B9B6A009A5A62039B8A
:10480000009A9A6200BF04B0704786B00190019B85
:10481000DB6A002B46D0019BDB6A08330593059BBE
:104820001B685B6A002B06D1059B00221A60059B62
:1048300000225A6027E0019B9B6A002B09D1019B53
:104840005B6A0393039B00229A62059B039A1A609A
:1048500019E0019B5B6A002B09D1019B9B6A0493C1
:10486000049B00225A62059B049A5A600BE0019B4C
:104870009B6A0493019B5B6A0393049B039A5A62AD
:10488000039B049A9A62059B1B89013B9AB2059B84
:104890001A81019B00225A62019B00229A62019BAD
:1048A0000022DA6200BF06B07047000000B587B092
:1048B000039002910192ADF80230029B93F83230DE
:1048C000072B17DC002B7FDB072B7DD801A252F8CA
:1048D00023F000BFCF490000CF490000FB48000093
:1048E000FB480000CF490000CF49000065490000A7
:1048F00065490000FF2B6CD066E0029B019A5A6765
:10490000029BBDF80220A3F87820029B089A5A6403
:10491000039B002B02D00298FFF777FF02990398C0
:10492000FFF7C0FE029B93F83230032B0AD1029BA3
:104930005433184604F036FC0590059B002B01D03B
:10494000FFF723F9029800F06BF8029B002283F82E
:104950003220029B002283F83120029B002283F840
:10496000302037E0029B019A5A67029BBDF8022073
:10497000A3F87820029B089A5A64039B002B02D06C
:104980000298FFF742FF02990398FFF78BFE029B04
:1049900093F83230072B0AD1029B5433184604F0A7
:1049A00001FC0590059B002B01D0FFF7EEF8029B60
:1049B000042283F83220029B002283F83120029BDC
:1049C000002283F8302005E0FFF7DFF802E000BFA7
:1049D00000E000BF00BF07B05DF804FB82B0002319
:1049E000019313E0019A13465B0013449B000B4AAA
:1049F00013440093009B00221A81009B00221A603E
:104A0000009B00225A60019B01330193019B3F2BC5
:104A1000E8D900BF00BF02B0704700BF38370020A0
:104A200000B583B00190019B93F83330184601F034
:104A300093F9019B93F83320074B1B789A4203D1DB
:104A4000019800F047F802E0019800F007F800BF75
:104A500003B05DF804FB00BF2E37002084B0019046
:104A6000019B93F833301A4613465B0013449B00B6
:104A7000174A13440393039B1B68002B0FD1039B1E
:104A800001221A81019B00221A61019B00225A61B6
:104A9000039B019A1A60039B019A5A6015E0039BDD
:104AA0001B8901339AB2039B1A81039B1A68019BED
:104AB0001A61019B00225A61039B1B680293029BAF
:104AC000019A5A61039B019A1A6000BF04B07047B3
:104AD0003837002084B00190019B93F833301A4698
:104AE00013465B0013449B00174A13440393039B34
:104AF0001B68002B0FD1039B01221A81019B00220E
:104B00001A61019B00225A61039B019A1A60039B60
:104B1000019A5A6014E0039B1B8901339AB2039BEC
:104B20001A81019B00221A61039B5B680293019B1F
:104B3000029A5A61029B019A1A61039B019A5A6078
:104B400000BF04B0704700BF3837002086B0019026
:104B5000019B1A68019B5B689A423AD0019B1B68D3
:104B60001A69019B5B689A4218D1019B1B680593E7
:104B7000019B5B680493059B049A5A61059B002284
:104B80001A61049B00225A61049B059A1A61019BD9
:104B9000049A1A60019B059A5A601AE0019B1B68EF
:104BA0000593019B5B680493059B1B690393039B1F
:104BB00000225A61059B00221A61059B049A5A61E2
:104BC000049B059A1A61019B039A1A60019B059A3E
:104BD0005A6000BF06B0704700B587B00190019BD6
:104BE00093F833301A4613465B0013449B00244A63
:104BF00013440593019B5B690493019B1B69039319
:104C0000049B002B1FD1039B002B0FD1059B00227F
:104C10001A81059B00221A60059B00225A60019BA5
:104C200093F83330184601F0BDF81FE0059B1B894F
:104C3000013B9AB2059B1A81039B00225A61059B96
:104C4000039A1A6012E0059B1B89013B9AB2059BEF
:104C50001A81049B039A1A61039B002B03D1059BC5
:104C6000049A5A6002E0039B049A5A61019B002255
:104C70005A61019B00221A6100BF07B05DF804FB76
:104C80003837002000B585B001900091009B039358
:104C9000104B1B78012B19D1FDF79AFA0290039B58
:104CA00000221A670C4B1B6893F833301A461346E0
:104CB0005B0013449B00094A13441846FFF746FF64
:104CC0000298FDF795FAFFF7DDF900E000BF05B0A7
:104CD0005DF804FB403A00200436002038370020FD
:104CE00000B585B00390039B002B12D00C4B1B78B2
:104CF000012B10D1039B196F002301930023009314
:104D0000039B084A084804F0FFF9084A039B136014
:104D100002E000BF00E000BF05B05DF804FB00BF8B
:104D2000403A0020854C0000EC350020043600207D
:104D30002DE9F04F93B01190119B002B77D03F4B92
:104D40001B78012B75D1119BDB6E002B3CD13C4BAA
:104D50001B6800220093019204F002FB034600222C
:104D600002930392DDE900452B46DDE902894246C4
:104D700002FB03F24B46214601FB03F31344224698
:104D80004146A2FB01673B441F462E4B1B68013B7B
:104D9000002204930592DDE904120B46F3180693F2
:104DA000134647EB03030793264B1B680022089327
:104DB0000992DDE90823DDE9060106F09FF90246C4
:104DC0000B46119B1A6735E0119BDB6E00229A4659
:104DD000934604F0C5FA034600229846914608FB24
:104DE0000BF20AFB09F31344AAFB08452B441D46AA
:104DF000144B1B68013B00220A930B92DDE90A1257
:104E00000B46E3180C93134645EB03030D930D4B30
:104E10001B6800220E930F92DDE90E23DDE90C01E1
:104E200006F06CF902460B46119B1A6702E000BFC0
:104E300000E000BF13B0BDE8F08F00BF403A002093
:104E40003C3A0020E43500202DE9F04F8DB0099068
:104E50000891089B002B4AD0089B00229A46934653
:104E600004F07EFA034600229846914608FB0BF2B6
:104E70000AFB09F31344AAFB08452B441D46214BAA
:104E80001B68002202930392DDE902120B46E6182A
:104E9000134645EB03031F46731E049347F1FF338C
:104EA0000593184B1B68002206930792DDE9062341
:104EB000DDE9040106F022F902460B4613460B9386
:104EC000099B03F154000023019300230093099BE5
:104ED0000D4A0B9904F018F90A900A9B002B01D097
:104EE000FEF753FE099B032283F8322003E0099B5F
:104EF000022283F832200998FFF76EFE00BF0DB042
:104F0000BDE8F08FE43500200D4F000000B587B0FC
:104F100001900091009B0493FDF75AF90390049BC4
:104F200093F83230013B062B00F2888001A252F840
:104F300023F000BF235000003D500000514F0000FF
:104F40003D500000335000003D500000514F000024
:104F500000230593049B93F83030042B03D1049B6A
:104F6000DB6A5B6A0593049B00225A67049B00225C
:104F7000A3F8782002F070FB0246049B5A64049860
:104F8000FFF743FC049B93F83230032B07D10498BE
:104F9000FFF746FD049B002283F8322008E0049BC3
:104FA00093F83230072B03D1049B042283F832207C
:104FB000049B032283F83120049B002283F83020D5
:104FC000059B002B3CD0059B93F83320059B93F861
:104FD00034309A4234D0059B93F83320049B93F8E5
:104FE00033309A422CD1059800F017FE03468DF815
:104FF0000B30059B93F834309DF80B20934228BF6B
:1050000013468DF80B30059B93F833309DF80B2039
:105010009A4215D09DF80B301946059801F00CFF07
:105020000EE0049B002283F832200498FFF7F8FC7E
:1050300007E0049B042283F8322002E000BF00E076
:1050400000BF0398FDF7D4F8FFF71CF800BF07B0C6
:105050005DF804FB82B0824B1B78DBB28DF8073021
:10506000804B1B68DBB28DF805307F4B1B78DBB2C1
:105070008DF807307D4B1B78DBB28DF807307C4B09
:105080001B68DBB28DF805307A4B1B6ADBB28DF8FA
:105090000530794B1B78DBB28DF80730774B1B78E6
:1050A000DBB28DF80730764B1B889BB2DBB28DF8F4
:1050B0000630744B1B889BB2DBB28DF80630724B06
:1050C0001B78DBB28DF80730704B1B889BB2DBB2CC
:1050D0008DF806306E4B1B889BB2DBB28DF8063024
:1050E0006C4B1B889BB2DBB28DF806306A4B93F891
:1050F0002830DBB28DF80530684B1B78DBB28DF8B9
:105100000730674B1B889BB2DBB28DF80630654BCE
:105110001B889BB2DBB28DF80630634B1B889BB2B9
:10512000DBB28DF80630614B1B889BB2DBB28DF889
:1051300006305F4B1B889BB2DBB28DF806305D4BAF
:105140001B889BB2DBB28DF806305B4B5B8D9BB24C
:10515000DBB28DF80530594B1B78DBB28DF8073088
:10516000574B1B889BB2DBB28DF80630554B1B7832
:10517000DBB28DF80630544B1B6ADBB28DF805307C
:10518000524B1B78DBB28DF80730514B1B889BB21A
:10519000DBB28DF806304F4B1B889BB2DBB28DF82B
:1051A00006304D4B1B68DBB28DF805304B4B1B783E
:1051B000DBB28DF806304A4B1B78DBB28DF8073036
:1051C000484B1B78DBB28DF80730474B1B78DBB2BE
:1051D0008DF80730454B1B78DBB28DF80730444B18
:1051E0001B78DBB28DF80730424B1B78DBB28DF8B1
:1051F0000730414B1B889BB2DBB28DF806303F4B2A
:105200001B78DBB28DF807303D4B1B889BB2DBB2BD
:105210008DF806303B4B1B889BB2DBB28DF8063015
:10522000394B1B78DBB28DF80730384B1B889BB2AB
:10523000DBB28DF80630364B9B8C9BB2DBB28DF81F
:105240000530344B1B889BB2DBB28DF806309DF8DD
:1052500007309DF806309DF8053000BF02B070475A
:1052600078100020C4100020791000201036002093
:105270007C10002014360020801000203C360020D6
:10528000821000208410002086100020881000204A
:105290008A1000208C100020403600208E10002044
:1052A00090100020921000209410002096100020F2
:1052B000981000209A100020703600209C100020CA
:1052C0009E100020A0100020A0360020A110002079
:1052D000A2100020A4100020A8100020AC10002074
:1052E000AD100020AE100020AF100020B010002044
:1052F000B1100020B2100020B4100020B610002021
:10530000B8100020BA100020BC100020BE100020F1
:10531000C8360020C010002086B001902B4B1B68BF
:1053200005932A4B1B680493049B10330493284B6A
:105330001B88013BADF80C300023ADF80E3016E0B1
:10534000059B049A1A60059B00225A60059B002267
:105350001A81059B0022DA60059B10330593049B9C
:1053600010330493BDF80E300133ADF80E30BDF8A4
:105370000E20BDF80C309A42E2D3059B00221A6041
:10538000059B00225A60059B00221A81059B002282
:10539000DA600E4B1B680F4A13600D4B1A880D4BD9
:1053A0009A800C4B0022DA800A4B00221A81019B62
:1053B00000221A70019B084A5A60019B5D229A6084
:1053C000019B064ADA6000BF06B07047A83500208E
:1053D000AC3500201C370020A0C6000024C7000008
:1053E00084B00190019B5B89ADF80E30019B5B8915
:1053F000002B26D0019B1B680293144B1A68029B5A
:105400001A60019B5B68114A1360104BDA88019B9C
:105410005B89D31A9AB20D4BDA800C4B9A88019BA8
:105420005B8913449AB2094B9A80019B00225A81EE
:10543000019B00229A81019B00221A60019B00229D
:105440005A60BDF80E30184604B070471C37002073
:1054500086B001900B46ADF80230019B1A4600233E
:10546000136053609360D360019BBDF802201A81E2
:1054700000BF06B07047000000B593B003900291E2
:105480000192019B002B01D1FEF77FFBFCF7BCFED4
:105490000346002B0CD0019B20221A70019B254A49
:1054A0005A60019B52229A60019B234ADA60FEE710
:1054B000039B002B0CD1019B0A221A70019B1D4AF1
:1054C0005A60019B55229A60019B1B4ADA60FEE7F5
:1054D000FCF77EFE1190039B184630231A460021EC
:1054E00005F0D8FF039B154A1A60039B029A5A6085
:1054F000039B08331846FFF711F9039800F046FBA9
:105500000F4B1B8801339AB20D4B1A801198FCF790
:105510006FFE019B00221A70019B064A5A60019B94
:105520006C229A60019B044ADA6000BF13B05DF8F8
:1055300004FB00BF34C70000C8C700004D555458D5
:105540002C37002000B587B00390029100931346DA
:10555000ADF80630089B002B01D1FEF716FBFCF7D7
:1055600053FE0346002B0DD0089B20221A70089B87
:105570008D4A5A60089B40F233129A60089B8B4A0E
:10558000DA60FEE7039B002B0DD1089B0A221A70FC
:10559000089B854A5A60089B4FF49B729A60089B4F
:1055A000824ADA60FEE7BDF80630002B04D0BDF871
:1055B0000630B3F5004F01D1012300E00023002B9A
:1055C0000DD1089B08221A70089B774A5A60089BE5
:1055D00040F239129A60089B744ADA60FEE7039B36
:1055E0001B68734A93420DD0089B0C221A70089BCB
:1055F0006D4A5A60089B40F23D129A60089B6B4AC4
:10560000DA60FEE7BDF90630002B07DBFCF70AFE87
:10561000034683F00103DBB2002B01D0012300E03D
:105620000023002B0DD1089B1F221A70089B5E4A95
:105630005A60089B4FF4A0729A60089B5B4ADA603C
:10564000FEE75C4B1B78012B0DD0089B02221A70E1
:10565000089B554A5A60089B40F245129A60089B85
:10566000524ADA603AE1FCF7B3FD0590039B93F8E8
:105670002830002B25D1504B1A68039B5A62039B9C
:10568000012283F82820009B002B03D0039BDA6AB9
:10569000009B1A60484B1B680399184600F098FA63
:1056A0000598FCF7A5FD089B00221A70089B3E4A4E
:1056B0005A60089B4FF4AA729A60089B3B4ADA60D2
:1056C0000CE1039B5A6A3C4B1B689A4235D1039B01
:1056D00093F82830FF2B10D10598FCF789FD089B23
:1056E0001E221A70089B304A5A60089B40F25D12D5
:1056F0009A60089B2D4ADA60F0E0039B93F828300B
:105700000133DAB2039B83F82820009B002B03D0DF
:10571000039BDA6A009B1A600598FCF769FD089BF9
:1057200023221A70089B204A5A60089B40F2691293
:105730009A60089B1D4ADA60D0E0BDF90630002B64
:1057400016DA0598FCF754FD009B002B02D0009B55
:1057500000221A60089B1D221A70089B124A5A6088
:10576000089B4FF4BB729A60089B104ADA60B5E060
:10577000124B1B78002B23D00598FCF739FD009BBA
:10578000002B02D0009B00221A60089B2D221A7069
:10579000089B054A5A60089B4FF4C1729A60089BA7
:1057A000024ADA609AE000BF34C70000D8C70000A0
:1057B0004D55545810370020883C0020383A0020BE
:1057C000039B5B6A0493049B93F83320454B1B684F
:1057D00093F833309A4207D9424B1B6893F8333021
:1057E0001946049801F028FB029A04210398FEF759
:1057F000D9FE0598FCF7FCFCFEF744FCFCF7E8FC3E
:105800000590384B1B6893F83130032B60D801A208
:1058100052F823F02558000051580000A558000008
:105820007D580000009B002B04D02E4B1B685A6C47
:10583000009B1A60089B00221A70089B2A4A5A6033
:10584000089B4FF4D0729A60089B284ADA6042E0C5
:10585000009B002B04D0234B1B685A6C009B1A60E2
:10586000089B21221A70089B1F4A5A60089B4FF41C
:10587000D5729A60089B1D4ADA602CE0009B002BD1
:1058800002D0009B00221A60089B22221A70089BFB
:10589000154A5A60089B4FF4DA729A60089B134AC3
:1058A000DA6018E0009B002B04D00E4B1B685A6C8A
:1058B000009B1A60089B31221A70089B0A4A5A60A2
:1058C000089B4FF4DF729A60089B084ADA6002E096
:1058D000FEF75BF900BF0598FCF78AFC07B05DF89E
:1058E00004FB00BF883C002034C70000D8C700007C
:1058F00000B58DB005900B460392ADF81230039BB6
:10590000002B01D1FEF741F9FCF77EFC0346002B8A
:105910000DD0039B20221A70039B964A5A60039B6A
:1059200040F257229A60039B934ADA60FEE7059B98
:10593000002B0DD1039B0A221A70039B8D4A5A60DB
:10594000039B40F25A229A60039B8B4ADA60FEE77F
:10595000BDF81230002B04D0BDF81230B3F5004F63
:1059600001D1012300E00023002B0DD1039B08226D
:105970001A70039B7F4A5A60039B40F25D229A6033
:10598000039B7D4ADA60FEE7059B1B687B4A9342D6
:105990000DD0039B0C221A70039B764A5A60039B1E
:1059A00040F261229A60039B734ADA60FEE7744B0F
:1059B0001B78012B0DD0039B02221A70039B6D4AAA
:1059C0005A60039B40F265229A60039B6A4ADA6040
:1059D000CCE0FCF7FDFB0B90059B5A6A694B1B68FA
:1059E0009A4210D00B98FCF703FC039B1B221A7001
:1059F000039B604A5A60039B4FF41B729A60039B9F
:105A00005D4ADA60B2E001F027FE0A90059B0A9A2F
:105A1000DA62059B93F82830013BDAB2059B83F8E4
:105A20002820059B93F82830002B10D00B98FCF70A
:105A3000DFFB039B23221A70039B4E4A5A60039B91
:105A400040F27D229A60039B4B4ADA608EE04D4B18
:105A50001B680599184600F0C8F8059B08330993A0
:105A6000099B1B68002B17D1059B00225A62059BDE
:105A7000002283F828200B98FCF7BAFB039B002236
:105A80001A70039B3B4A5A60039B40F28A229A6039
:105A9000039B394ADA6069E03A4B1B6893F833207C
:105AA000384B1B6893F834309A4233D0354B1B681F
:105AB000184600F0B2F803468DF82330314B1B68CE
:105AC00093F834309DF82320934228BF13468DF875
:105AD00023302C4B1B6893F833309DF823209A42D7
